{
  "contractName": "ArtBox",
  "abi": [
    {
      "inputs": [],
      "payable": false,
      "stateMutability": "nonpayable",
      "type": "constructor"
    },
    {
      "anonymous": false,
      "inputs": [
        {
          "indexed": false,
          "internalType": "uint256",
          "name": "id",
          "type": "uint256"
        },
        {
          "indexed": false,
          "internalType": "string",
          "name": "name",
          "type": "string"
        },
        {
          "indexed": false,
          "internalType": "uint256",
          "name": "price",
          "type": "uint256"
        },
        {
          "indexed": false,
          "internalType": "address payable",
          "name": "artist",
          "type": "address"
        },
        {
          "indexed": false,
          "internalType": "address payable",
          "name": "owner",
          "type": "address"
        },
        {
          "indexed": false,
          "internalType": "string",
          "name": "originalHash",
          "type": "string"
        }
      ],
      "name": "buyArtworkEvent",
      "type": "event"
    },
    {
      "anonymous": false,
      "inputs": [
        {
          "indexed": false,
          "internalType": "uint256",
          "name": "id",
          "type": "uint256"
        },
        {
          "indexed": false,
          "internalType": "string",
          "name": "name",
          "type": "string"
        },
        {
          "indexed": false,
          "internalType": "uint256",
          "name": "price",
          "type": "uint256"
        },
        {
          "indexed": false,
          "internalType": "address payable",
          "name": "artist",
          "type": "address"
        },
        {
          "indexed": false,
          "internalType": "address payable",
          "name": "owner",
          "type": "address"
        },
        {
          "indexed": false,
          "internalType": "string",
          "name": "originalHash",
          "type": "string"
        },
        {
          "indexed": false,
          "internalType": "string",
          "name": "waterMarkedHash",
          "type": "string"
        }
      ],
      "name": "sellArtworkEvent",
      "type": "event"
    },
    {
      "constant": true,
      "inputs": [],
      "name": "artworkCount",
      "outputs": [
        {
          "internalType": "uint256",
          "name": "",
          "type": "uint256"
        }
      ],
      "payable": false,
      "stateMutability": "view",
      "type": "function"
    },
    {
      "constant": true,
      "inputs": [
        {
          "internalType": "uint256",
          "name": "",
          "type": "uint256"
        }
      ],
      "name": "artworkID",
      "outputs": [
        {
          "internalType": "uint256",
          "name": "",
          "type": "uint256"
        }
      ],
      "payable": false,
      "stateMutability": "view",
      "type": "function"
    },
    {
      "constant": true,
      "inputs": [
        {
          "internalType": "uint256",
          "name": "",
          "type": "uint256"
        }
      ],
      "name": "artworks",
      "outputs": [
        {
          "internalType": "uint256",
          "name": "id",
          "type": "uint256"
        },
        {
          "internalType": "string",
          "name": "name",
          "type": "string"
        },
        {
          "internalType": "uint256",
          "name": "price",
          "type": "uint256"
        },
        {
          "internalType": "address payable",
          "name": "artist",
          "type": "address"
        },
        {
          "internalType": "address payable",
          "name": "owner",
          "type": "address"
        },
        {
          "internalType": "string",
          "name": "originalHash",
          "type": "string"
        },
        {
          "internalType": "string",
          "name": "waterMarkedHash",
          "type": "string"
        }
      ],
      "payable": false,
      "stateMutability": "view",
      "type": "function"
    },
    {
      "constant": true,
      "inputs": [],
      "name": "contractName",
      "outputs": [
        {
          "internalType": "string",
          "name": "",
          "type": "string"
        }
      ],
      "payable": false,
      "stateMutability": "view",
      "type": "function"
    },
    {
      "constant": true,
      "inputs": [
        {
          "internalType": "address",
          "name": "",
          "type": "address"
        }
      ],
      "name": "createdCount",
      "outputs": [
        {
          "internalType": "uint256",
          "name": "",
          "type": "uint256"
        }
      ],
      "payable": false,
      "stateMutability": "view",
      "type": "function"
    },
    {
      "constant": true,
      "inputs": [
        {
          "internalType": "address",
          "name": "",
          "type": "address"
        }
      ],
      "name": "ownerCount",
      "outputs": [
        {
          "internalType": "uint256",
          "name": "",
          "type": "uint256"
        }
      ],
      "payable": false,
      "stateMutability": "view",
      "type": "function"
    },
    {
      "constant": true,
      "inputs": [
        {
          "internalType": "address",
          "name": "",
          "type": "address"
        },
        {
          "internalType": "uint256",
          "name": "",
          "type": "uint256"
        }
      ],
      "name": "ownersCollection",
      "outputs": [
        {
          "internalType": "uint256",
          "name": "id",
          "type": "uint256"
        },
        {
          "internalType": "string",
          "name": "name",
          "type": "string"
        },
        {
          "internalType": "uint256",
          "name": "price",
          "type": "uint256"
        },
        {
          "internalType": "address payable",
          "name": "artist",
          "type": "address"
        },
        {
          "internalType": "address payable",
          "name": "owner",
          "type": "address"
        },
        {
          "internalType": "string",
          "name": "originalHash",
          "type": "string"
        },
        {
          "internalType": "string",
          "name": "waterMarkedHash",
          "type": "string"
        }
      ],
      "payable": false,
      "stateMutability": "view",
      "type": "function"
    },
    {
      "constant": true,
      "inputs": [
        {
          "internalType": "address",
          "name": "",
          "type": "address"
        },
        {
          "internalType": "uint256",
          "name": "",
          "type": "uint256"
        }
      ],
      "name": "userCreated",
      "outputs": [
        {
          "internalType": "uint256",
          "name": "id",
          "type": "uint256"
        },
        {
          "internalType": "string",
          "name": "name",
          "type": "string"
        },
        {
          "internalType": "uint256",
          "name": "price",
          "type": "uint256"
        },
        {
          "internalType": "address payable",
          "name": "artist",
          "type": "address"
        },
        {
          "internalType": "address payable",
          "name": "owner",
          "type": "address"
        },
        {
          "internalType": "string",
          "name": "originalHash",
          "type": "string"
        },
        {
          "internalType": "string",
          "name": "waterMarkedHash",
          "type": "string"
        }
      ],
      "payable": false,
      "stateMutability": "view",
      "type": "function"
    },
    {
      "constant": false,
      "inputs": [
        {
          "internalType": "string",
          "name": "_name",
          "type": "string"
        },
        {
          "internalType": "uint256",
          "name": "_price",
          "type": "uint256"
        },
        {
          "internalType": "string",
          "name": "_originalHash",
          "type": "string"
        },
        {
          "internalType": "string",
          "name": "_waterMarkedHash",
          "type": "string"
        }
      ],
      "name": "createArtwork",
      "outputs": [],
      "payable": false,
      "stateMutability": "nonpayable",
      "type": "function"
    },
    {
      "constant": false,
      "inputs": [
        {
          "internalType": "uint256",
          "name": "_id",
          "type": "uint256"
        }
      ],
      "name": "buyArtwork",
      "outputs": [],
      "payable": true,
      "stateMutability": "payable",
      "type": "function"
    },
    {
      "constant": true,
      "inputs": [],
      "name": "getArtworks",
      "outputs": [
        {
          "internalType": "uint256[]",
          "name": "",
          "type": "uint256[]"
        }
      ],
      "payable": false,
      "stateMutability": "view",
      "type": "function"
    },
    {
      "constant": true,
      "inputs": [
        {
          "internalType": "uint256",
          "name": "_id",
          "type": "uint256"
        }
      ],
      "name": "getArtwork",
      "outputs": [
        {
          "internalType": "string",
          "name": "",
          "type": "string"
        },
        {
          "internalType": "uint256",
          "name": "",
          "type": "uint256"
        },
        {
          "internalType": "address payable",
          "name": "",
          "type": "address"
        },
        {
          "internalType": "address payable",
          "name": "",
          "type": "address"
        },
        {
          "internalType": "string",
          "name": "",
          "type": "string"
        }
      ],
      "payable": false,
      "stateMutability": "view",
      "type": "function"
    }
  ],
  "bytecode": "0x608060405260006001553480156200001657600080fd5b506040518060400160405280600681526020017f417274426f78000000000000000000000000000000000000000000000000000081525060009080519060200190620000649291906200006b565b506200011a565b828054600181600116156101000203166002900490600052602060002090601f016020900481019282601f10620000ae57805160ff1916838001178555620000df565b82800160010185558215620000df579182015b82811115620000de578251825591602001919060010190620000c1565b5b509050620000ee9190620000f2565b5090565b6200011791905b8082111562000113576000816000905550600101620000f9565b5090565b90565b612d23806200012a6000396000f3fe6080604052600436106100a65760003560e01c806375d0c0dc1161006457806375d0c0dc14610758578063855ad14a146107e8578063a087644514610a08578063ccfdec8c14610a33578063e24b4ba414610a98578063e44c3c4b14610cb8576100a6565b8062a71527146100ab578063167ddf6e146101175780634b602673146102a457806356127f6d146104a45780635932641a146105095780635b1e7b8314610558575b600080fd5b3480156100b757600080fd5b506100c0610ce6565b6040518080602001828103825283818151815260200191508051906020019060200280838360005b838110156101035780820151818401526020810190506100e8565b505050509050019250505060405180910390f35b34801561012357600080fd5b506101506004803603602081101561013a57600080fd5b8101908080359060200190929190505050610d3e565b60405180806020018681526020018573ffffffffffffffffffffffffffffffffffffffff1673ffffffffffffffffffffffffffffffffffffffff1681526020018473ffffffffffffffffffffffffffffffffffffffff1673ffffffffffffffffffffffffffffffffffffffff16815260200180602001838103835288818151815260200191508051906020019080838360005b838110156101fe5780820151818401526020810190506101e3565b50505050905090810190601f16801561022b5780820380516001836020036101000a031916815260200191505b50838103825284818151815260200191508051906020019080838360005b83811015610264578082015181840152602081019050610249565b50505050905090810190601f1680156102915780820380516001836020036101000a031916815260200191505b5097505050505050505060405180910390f35b3480156102b057600080fd5b506102dd600480360360208110156102c757600080fd5b8101908080359060200190929190505050610f43565b60405180888152602001806020018781526020018673ffffffffffffffffffffffffffffffffffffffff1673ffffffffffffffffffffffffffffffffffffffff1681526020018573ffffffffffffffffffffffffffffffffffffffff1673ffffffffffffffffffffffffffffffffffffffff168152602001806020018060200184810384528a818151815260200191508051906020019080838360005b8381101561039557808201518184015260208101905061037a565b50505050905090810190601f1680156103c25780820380516001836020036101000a031916815260200191505b50848103835286818151815260200191508051906020019080838360005b838110156103fb5780820151818401526020810190506103e0565b50505050905090810190601f1680156104285780820380516001836020036101000a031916815260200191505b50848103825285818151815260200191508051906020019080838360005b83811015610461578082015181840152602081019050610446565b50505050905090810190601f16801561048e5780820380516001836020036101000a031916815260200191505b509a505050505050505050505060405180910390f35b3480156104b057600080fd5b506104f3600480360360208110156104c757600080fd5b81019080803573ffffffffffffffffffffffffffffffffffffffff16906020019092919050505061118d565b6040518082815260200191505060405180910390f35b34801561051557600080fd5b506105426004803603602081101561052c57600080fd5b81019080803590602001909291905050506111a5565b6040518082815260200191505060405180910390f35b34801561056457600080fd5b506107566004803603608081101561057b57600080fd5b810190808035906020019064010000000081111561059857600080fd5b8201836020820111156105aa57600080fd5b803590602001918460018302840111640100000000831117156105cc57600080fd5b91908080601f016020809104026020016040519081016040528093929190818152602001838380828437600081840152601f19601f820116905080830192505050505050509192919290803590602001909291908035906020019064010000000081111561063957600080fd5b82018360208201111561064b57600080fd5b8035906020019184600183028401116401000000008311171561066d57600080fd5b91908080601f016020809104026020016040519081016040528093929190818152602001838380828437600081840152601f19601f820116905080830192505050505050509192919290803590602001906401000000008111156106d057600080fd5b8201836020820111156106e257600080fd5b8035906020019184600183028401116401000000008311171561070457600080fd5b91908080601f016020809104026020016040519081016040528093929190818152602001838380828437600081840152601f19601f8201169050808301925050505050505091929192905050506111c6565b005b34801561076457600080fd5b5061076d611ac1565b6040518080602001828103825283818151815260200191508051906020019080838360005b838110156107ad578082015181840152602081019050610792565b50505050905090810190601f1680156107da5780820380516001836020036101000a031916815260200191505b509250505060405180910390f35b3480156107f457600080fd5b506108416004803603604081101561080b57600080fd5b81019080803573ffffffffffffffffffffffffffffffffffffffff16906020019092919080359060200190929190505050611b5f565b60405180888152602001806020018781526020018673ffffffffffffffffffffffffffffffffffffffff1673ffffffffffffffffffffffffffffffffffffffff1681526020018573ffffffffffffffffffffffffffffffffffffffff1673ffffffffffffffffffffffffffffffffffffffff168152602001806020018060200184810384528a818151815260200191508051906020019080838360005b838110156108f95780820151818401526020810190506108de565b50505050905090810190601f1680156109265780820380516001836020036101000a031916815260200191505b50848103835286818151815260200191508051906020019080838360005b8381101561095f578082015181840152602081019050610944565b50505050905090810190601f16801561098c5780820380516001836020036101000a031916815260200191505b50848103825285818151815260200191508051906020019080838360005b838110156109c55780820151818401526020810190506109aa565b50505050905090810190601f1680156109f25780820380516001836020036101000a031916815260200191505b509a505050505050505050505060405180910390f35b348015610a1457600080fd5b50610a1d611db6565b6040518082815260200191505060405180910390f35b348015610a3f57600080fd5b50610a8260048036036020811015610a5657600080fd5b81019080803573ffffffffffffffffffffffffffffffffffffffff169060200190929190505050611dbc565b6040518082815260200191505060405180910390f35b348015610aa457600080fd5b50610af160048036036040811015610abb57600080fd5b81019080803573ffffffffffffffffffffffffffffffffffffffff16906020019092919080359060200190929190505050611dd4565b60405180888152602001806020018781526020018673ffffffffffffffffffffffffffffffffffffffff1673ffffffffffffffffffffffffffffffffffffffff1681526020018573ffffffffffffffffffffffffffffffffffffffff1673ffffffffffffffffffffffffffffffffffffffff168152602001806020018060200184810384528a818151815260200191508051906020019080838360005b83811015610ba9578082015181840152602081019050610b8e565b50505050905090810190601f168015610bd65780820380516001836020036101000a031916815260200191505b50848103835286818151815260200191508051906020019080838360005b83811015610c0f578082015181840152602081019050610bf4565b50505050905090810190601f168015610c3c5780820380516001836020036101000a031916815260200191505b50848103825285818151815260200191508051906020019080838360005b83811015610c75578082015181840152602081019050610c5a565b50505050905090810190601f168015610ca25780820380516001836020036101000a031916815260200191505b509a505050505050505050505060405180910390f35b610ce460048036036020811015610cce57600080fd5b810190808035906020019092919050505061202b565b005b60606002805480602002602001604051908101604052809291908181526020018280548015610d3457602002820191906000526020600020905b815481526020019060010190808311610d20575b5050505050905090565b6060600080600060606005600087815260200190815260200160002060010160056000888152602001908152602001600020600201546005600089815260200190815260200160002060030160009054906101000a900473ffffffffffffffffffffffffffffffffffffffff16600560008a815260200190815260200160002060040160009054906101000a900473ffffffffffffffffffffffffffffffffffffffff16600560008b8152602001908152602001600020600601848054600181600116156101000203166002900480601f016020809104026020016040519081016040528092919081815260200182805460018160011615610100020316600290048015610e8d5780601f10610e6257610100808354040283529160200191610e8d565b820191906000526020600020905b815481529060010190602001808311610e7057829003601f168201915b50505050509450808054600181600116156101000203166002900480601f016020809104026020016040519081016040528092919081815260200182805460018160011615610100020316600290048015610f295780601f10610efe57610100808354040283529160200191610f29565b820191906000526020600020905b815481529060010190602001808311610f0c57829003601f168201915b505050505090509450945094509450945091939590929450565b6005602052806000526040600020600091509050806000015490806001018054600181600116156101000203166002900480601f016020809104026020016040519081016040528092919081815260200182805460018160011615610100020316600290048015610ff55780601f10610fca57610100808354040283529160200191610ff5565b820191906000526020600020905b815481529060010190602001808311610fd857829003601f168201915b5050505050908060020154908060030160009054906101000a900473ffffffffffffffffffffffffffffffffffffffff16908060040160009054906101000a900473ffffffffffffffffffffffffffffffffffffffff1690806005018054600181600116156101000203166002900480601f0160208091040260200160405190810160405280929190818152602001828054600181600116156101000203166002900480156110e55780601f106110ba576101008083540402835291602001916110e5565b820191906000526020600020905b8154815290600101906020018083116110c857829003601f168201915b505050505090806006018054600181600116156101000203166002900480601f0160208091040260200160405190810160405280929190818152602001828054600181600116156101000203166002900480156111835780601f1061115857610100808354040283529160200191611183565b820191906000526020600020905b81548152906001019060200180831161116657829003601f168201915b5050505050905087565b60036020528060005260406000206000915090505481565b600281815481106111b257fe5b906000526020600020016000915090505481565b600084511161123d576040517f08c379a00000000000000000000000000000000000000000000000000000000081526004018080602001828103825260118152602001807f4e616d65206973206e6f742076616c696400000000000000000000000000000081525060200191505060405180910390fd5b600083116112b3576040517f08c379a00000000000000000000000000000000000000000000000000000000081526004018080602001828103825260128152602001807f5072696365206973206e6f742076616c6964000000000000000000000000000081525060200191505060405180910390fd5b6001600081548092919060010191905055506040518060e0016040528060015481526020018581526020018481526020013373ffffffffffffffffffffffffffffffffffffffff1681526020013373ffffffffffffffffffffffffffffffffffffffff16815260200183815260200182815250600560006001548152602001908152602001600020600082015181600001556020820151816001019080519060200190611361929190612b11565b506040820151816002015560608201518160030160006101000a81548173ffffffffffffffffffffffffffffffffffffffff021916908373ffffffffffffffffffffffffffffffffffffffff16021790555060808201518160040160006101000a81548173ffffffffffffffffffffffffffffffffffffffff021916908373ffffffffffffffffffffffffffffffffffffffff16021790555060a0820151816005019080519060200190611416929190612b11565b5060c0820151816006019080519060200190611433929190612b11565b5090505060016002600154908060018154018082558091505090600182039060005260206000200160009091929091909150555050600460003373ffffffffffffffffffffffffffffffffffffffff1673ffffffffffffffffffffffffffffffffffffffff16815260200190815260200160002060008154809291906001019190505550600360003373ffffffffffffffffffffffffffffffffffffffff1673ffffffffffffffffffffffffffffffffffffffff16815260200190815260200160002060008154809291906001019190505550600560006001548152602001908152602001600020600660003373ffffffffffffffffffffffffffffffffffffffff1673ffffffffffffffffffffffffffffffffffffffff16815260200190815260200160002060006001548152602001908152602001600020600082015481600001556001820181600101908054600181600116156101000203166002900461159e929190612b91565b50600282015481600201556003820160009054906101000a900473ffffffffffffffffffffffffffffffffffffffff168160030160006101000a81548173ffffffffffffffffffffffffffffffffffffffff021916908373ffffffffffffffffffffffffffffffffffffffff1602179055506004820160009054906101000a900473ffffffffffffffffffffffffffffffffffffffff168160040160006101000a81548173ffffffffffffffffffffffffffffffffffffffff021916908373ffffffffffffffffffffffffffffffffffffffff1602179055506005820181600501908054600181600116156101000203166002900461169e929190612b91565b50600682018160060190805460018160011615610100020316600290046116c6929190612b91565b50905050600560006001548152602001908152602001600020600760003373ffffffffffffffffffffffffffffffffffffffff1673ffffffffffffffffffffffffffffffffffffffff1681526020019081526020016000206000600360003373ffffffffffffffffffffffffffffffffffffffff1673ffffffffffffffffffffffffffffffffffffffff168152602001908152602001600020548152602001908152602001600020600082015481600001556001820181600101908054600181600116156101000203166002900461179f929190612b91565b50600282015481600201556003820160009054906101000a900473ffffffffffffffffffffffffffffffffffffffff168160030160006101000a81548173ffffffffffffffffffffffffffffffffffffffff021916908373ffffffffffffffffffffffffffffffffffffffff1602179055506004820160009054906101000a900473ffffffffffffffffffffffffffffffffffffffff168160040160006101000a81548173ffffffffffffffffffffffffffffffffffffffff021916908373ffffffffffffffffffffffffffffffffffffffff1602179055506005820181600501908054600181600116156101000203166002900461189f929190612b91565b50600682018160060190805460018160011615610100020316600290046118c7929190612b91565b509050507f2acb094bc093c8fed7e76a4465e0f42bbafc50080403fde6c1d435708890522760015485853333878760405180888152602001806020018781526020018673ffffffffffffffffffffffffffffffffffffffff1673ffffffffffffffffffffffffffffffffffffffff1681526020018573ffffffffffffffffffffffffffffffffffffffff1673ffffffffffffffffffffffffffffffffffffffff168152602001806020018060200184810384528a818151815260200191508051906020019080838360005b838110156119ad578082015181840152602081019050611992565b50505050905090810190601f1680156119da5780820380516001836020036101000a031916815260200191505b50848103835286818151815260200191508051906020019080838360005b83811015611a135780820151818401526020810190506119f8565b50505050905090810190601f168015611a405780820380516001836020036101000a031916815260200191505b50848103825285818151815260200191508051906020019080838360005b83811015611a79578082015181840152602081019050611a5e565b50505050905090810190601f168015611aa65780820380516001836020036101000a031916815260200191505b509a505050505050505050505060405180910390a150505050565b60008054600181600116156101000203166002900480601f016020809104026020016040519081016040528092919081815260200182805460018160011615610100020316600290048015611b575780601f10611b2c57610100808354040283529160200191611b57565b820191906000526020600020905b815481529060010190602001808311611b3a57829003601f168201915b505050505081565b600760205281600052604060002060205280600052604060002060009150915050806000015490806001018054600181600116156101000203166002900480601f016020809104026020016040519081016040528092919081815260200182805460018160011615610100020316600290048015611c1e5780601f10611bf357610100808354040283529160200191611c1e565b820191906000526020600020905b815481529060010190602001808311611c0157829003601f168201915b5050505050908060020154908060030160009054906101000a900473ffffffffffffffffffffffffffffffffffffffff16908060040160009054906101000a900473ffffffffffffffffffffffffffffffffffffffff1690806005018054600181600116156101000203166002900480601f016020809104026020016040519081016040528092919081815260200182805460018160011615610100020316600290048015611d0e5780601f10611ce357610100808354040283529160200191611d0e565b820191906000526020600020905b815481529060010190602001808311611cf157829003601f168201915b505050505090806006018054600181600116156101000203166002900480601f016020809104026020016040519081016040528092919081815260200182805460018160011615610100020316600290048015611dac5780601f10611d8157610100808354040283529160200191611dac565b820191906000526020600020905b815481529060010190602001808311611d8f57829003601f168201915b5050505050905087565b60015481565b60046020528060005260406000206000915090505481565b600660205281600052604060002060205280600052604060002060009150915050806000015490806001018054600181600116156101000203166002900480601f016020809104026020016040519081016040528092919081815260200182805460018160011615610100020316600290048015611e935780601f10611e6857610100808354040283529160200191611e93565b820191906000526020600020905b815481529060010190602001808311611e7657829003601f168201915b5050505050908060020154908060030160009054906101000a900473ffffffffffffffffffffffffffffffffffffffff16908060040160009054906101000a900473ffffffffffffffffffffffffffffffffffffffff1690806005018054600181600116156101000203166002900480601f016020809104026020016040519081016040528092919081815260200182805460018160011615610100020316600290048015611f835780601f10611f5857610100808354040283529160200191611f83565b820191906000526020600020905b815481529060010190602001808311611f6657829003601f168201915b505050505090806006018054600181600116156101000203166002900480601f0160208091040260200160405190810160405280929190818152602001828054600181600116156101000203166002900480156120215780601f10611ff657610100808354040283529160200191612021565b820191906000526020600020905b81548152906001019060200180831161200457829003601f168201915b5050505050905087565b612033612c18565b600560008381526020019081526020016000206040518060e001604052908160008201548152602001600182018054600181600116156101000203166002900480601f0160208091040260200160405190810160405280929190818152602001828054600181600116156101000203166002900480156120f45780601f106120c9576101008083540402835291602001916120f4565b820191906000526020600020905b8154815290600101906020018083116120d757829003601f168201915b50505050508152602001600282015481526020016003820160009054906101000a900473ffffffffffffffffffffffffffffffffffffffff1673ffffffffffffffffffffffffffffffffffffffff1673ffffffffffffffffffffffffffffffffffffffff1681526020016004820160009054906101000a900473ffffffffffffffffffffffffffffffffffffffff1673ffffffffffffffffffffffffffffffffffffffff1673ffffffffffffffffffffffffffffffffffffffff168152602001600582018054600181600116156101000203166002900480601f01602080910402602001604051908101604052809291908181526020018280546001816001161561010002031660029004801561224c5780601f106122215761010080835404028352916020019161224c565b820191906000526020600020905b81548152906001019060200180831161222f57829003601f168201915b50505050508152602001600682018054600181600116156101000203166002900480601f0160208091040260200160405190810160405280929190818152602001828054600181600116156101000203166002900480156122ee5780601f106122c3576101008083540402835291602001916122ee565b820191906000526020600020905b8154815290600101906020018083116122d157829003601f168201915b50505050508152505090506000816080015190506000826000015111801561231c5750600154826000015111155b61238e576040517f08c379a000000000000000000000000000000000000000000000000000000000815260040180806020018281038252600f8152602001807f4944206973206e6f742076616c6964000000000000000000000000000000000081525060200191505060405180910390fd5b8160400151341015612408576040517f08c379a000000000000000000000000000000000000000000000000000000000815260040180806020018281038252600e8152602001807f42696420697320746f6f206c6f7700000000000000000000000000000000000081525060200191505060405180910390fd5b3373ffffffffffffffffffffffffffffffffffffffff168173ffffffffffffffffffffffffffffffffffffffff1614156124aa576040517f08c379a00000000000000000000000000000000000000000000000000000000081526004018080602001828103825260178152602001807f73656c6c65722063616e206e6f7420626520627579657200000000000000000081525060200191505060405180910390fd5b33826080019073ffffffffffffffffffffffffffffffffffffffff16908173ffffffffffffffffffffffffffffffffffffffff1681525050816005600085815260200190815260200160002060008201518160000155602082015181600101908051906020019061251c929190612b11565b506040820151816002015560608201518160030160006101000a81548173ffffffffffffffffffffffffffffffffffffffff021916908373ffffffffffffffffffffffffffffffffffffffff16021790555060808201518160040160006101000a81548173ffffffffffffffffffffffffffffffffffffffff021916908373ffffffffffffffffffffffffffffffffffffffff16021790555060a08201518160050190805190602001906125d1929190612b11565b5060c08201518160060190805190602001906125ee929190612b11565b5090505060056000848152602001908152602001600020600660003373ffffffffffffffffffffffffffffffffffffffff1673ffffffffffffffffffffffffffffffffffffffff16815260200190815260200160002060008581526020019081526020016000206000820154816000015560018201816001019080546001816001161561010002031660029004612686929190612b91565b50600282015481600201556003820160009054906101000a900473ffffffffffffffffffffffffffffffffffffffff168160030160006101000a81548173ffffffffffffffffffffffffffffffffffffffff021916908373ffffffffffffffffffffffffffffffffffffffff1602179055506004820160009054906101000a900473ffffffffffffffffffffffffffffffffffffffff168160040160006101000a81548173ffffffffffffffffffffffffffffffffffffffff021916908373ffffffffffffffffffffffffffffffffffffffff16021790555060058201816005019080546001816001161561010002031660029004612786929190612b91565b50600682018160060190805460018160011615610100020316600290046127ae929190612b91565b50905050600460003373ffffffffffffffffffffffffffffffffffffffff1673ffffffffffffffffffffffffffffffffffffffff16815260200190815260200160002060008154809291906001019190505550600660008273ffffffffffffffffffffffffffffffffffffffff1673ffffffffffffffffffffffffffffffffffffffff168152602001908152602001600020600084815260200190815260200160002060008082016000905560018201600061286a9190612c81565b60028201600090556003820160006101000a81549073ffffffffffffffffffffffffffffffffffffffff02191690556004820160006101000a81549073ffffffffffffffffffffffffffffffffffffffff02191690556005820160006128d09190612c81565b6006820160006128e09190612c81565b5050600460008273ffffffffffffffffffffffffffffffffffffffff1673ffffffffffffffffffffffffffffffffffffffff16815260200190815260200160002060008154809291906001900391905055508073ffffffffffffffffffffffffffffffffffffffff166108fc349081150290604051600060405180830381858888f19350505050158015612978573d6000803e3d6000fd5b507f55d9adfee98da796c20b4291ddcadf0075b7c3986d5653cfb59091a3d0055f17600154836020015184604001518560600151338760c0015160405180878152602001806020018681526020018573ffffffffffffffffffffffffffffffffffffffff1673ffffffffffffffffffffffffffffffffffffffff1681526020018473ffffffffffffffffffffffffffffffffffffffff1673ffffffffffffffffffffffffffffffffffffffff16815260200180602001838103835288818151815260200191508051906020019080838360005b83811015612a66578082015181840152602081019050612a4b565b50505050905090810190601f168015612a935780820380516001836020036101000a031916815260200191505b50838103825284818151815260200191508051906020019080838360005b83811015612acc578082015181840152602081019050612ab1565b50505050905090810190601f168015612af95780820380516001836020036101000a031916815260200191505b509850505050505050505060405180910390a1505050565b828054600181600116156101000203166002900490600052602060002090601f016020900481019282601f10612b5257805160ff1916838001178555612b80565b82800160010185558215612b80579182015b82811115612b7f578251825591602001919060010190612b64565b5b509050612b8d9190612cc9565b5090565b828054600181600116156101000203166002900490600052602060002090601f016020900481019282601f10612bca5780548555612c07565b82800160010185558215612c0757600052602060002091601f016020900482015b82811115612c06578254825591600101919060010190612beb565b5b509050612c149190612cc9565b5090565b6040518060e00160405280600081526020016060815260200160008152602001600073ffffffffffffffffffffffffffffffffffffffff168152602001600073ffffffffffffffffffffffffffffffffffffffff16815260200160608152602001606081525090565b50805460018160011615610100020316600290046000825580601f10612ca75750612cc6565b601f016020900490600052602060002090810190612cc59190612cc9565b5b50565b612ceb91905b80821115612ce7576000816000905550600101612ccf565b5090565b9056fea265627a7a72315820527e76946716246346dc0c605e49c591de71b3252ce968fcc9e42e91ee398b1664736f6c63430005100032",
  "source": "pragma solidity ^0.5.0;\n\n\ncontract ArtBox {\n    //Intialization of variables\n    string public contractName;\n    uint public artworkCount = 0;\n    uint[] public artworkID;\n    mapping(address => uint) public createdCount; //amount of artwork created by an address\n    mapping(address => uint) public ownerCount; //amount of artwork owned by owner\n    mapping(uint => Artwork) public artworks; //amount of artworks\n    mapping(address => mapping(uint => Artwork)) public ownersCollection; //mapped artwork ID to a user's address\n    mapping(address => mapping(uint => Artwork)) public userCreated; // mapped artwork to a user's address\n\n    //TODO: status for artwork\n    enum ArtWorkStatus {\n        active,\n        sold,\n        removed\n    }\n\n    //Structs\n    struct Artwork {\n        uint id;\n        string name;\n        uint price;\n        address payable artist;\n        address payable owner;\n        string originalHash;\n        string waterMarkedHash;\n    }\n\n\n     //Emitting Events for testing\n    event sellArtworkEvent(\n        uint id,\n        string name,\n        uint price,\n        address payable artist,\n        address payable owner,\n        string originalHash,\n        string waterMarkedHash\n    );\n\n    event buyArtworkEvent(\n        uint id,\n        string name,\n        uint price,\n        address payable artist,\n        address payable owner,\n        string originalHash\n    );\n\n\n\n    //Constructors\n    constructor() public{\n        contractName = \"ArtBox\";\n    }\n\n    //Functions\n    function createArtwork(string memory _name, uint _price, string memory _originalHash, string memory _waterMarkedHash) public {\n\n        //Require valid parameters\n        require(bytes(_name).length > 0, \"Name is not valid\");\n        require(_price > 0, \"Price is not valid\");\n        artworkCount++;\n\n        // Create artwork\n        artworks[artworkCount] = Artwork(artworkCount, _name, _price, msg.sender, msg.sender,  _originalHash, _waterMarkedHash);\n        artworkID.push(artworkCount)-1;\n\n        //Increasing a user's createdCount and ownedCount\n        ownerCount[msg.sender]++;\n        createdCount[msg.sender]++;\n\n\n        //adding artwork to owner list and crated list\n        ownersCollection[msg.sender][artworkCount] = artworks[artworkCount];\n        userCreated[msg.sender][createdCount[msg.sender]] = artworks[artworkCount];\n\n        //Event for test\n        emit sellArtworkEvent(artworkCount, _name, _price, msg.sender, msg.sender, _originalHash, _waterMarkedHash);\n    }\n\n    function buyArtwork(uint _id) public payable {\n\n        Artwork memory _artwork = artworks[_id];\n        address payable _seller = _artwork.owner;\n\n        //validation\n        require(_artwork.id > 0 && _artwork.id <= artworkCount, \"ID is not valid\");\n        require(msg.value >= _artwork.price, \"Bid is too low\");\n        require(_seller != msg.sender, \"seller can not be buyer\");\n\n        //update values\n        _artwork.owner = msg.sender;\n        artworks[_id] = _artwork;\n\n        //add artwork to new owner's collection\n        ownersCollection[msg.sender][_id] = artworks[_id];\n        ownerCount[msg.sender]++;\n\n        //delete from previous owner's collection\n        delete ownersCollection[_seller][_id];\n        ownerCount[_seller]--;\n\n        address(_seller).transfer(msg.value);\n\n        //Event for testing\n        emit buyArtworkEvent(artworkCount, _artwork.name, _artwork.price, _artwork.artist, msg.sender, _artwork.waterMarkedHash);\n\n\n    }\n\n    function getArtworks() public view returns(uint[] memory){\n        return artworkID;\n    }\n\n    function getArtwork(uint _id) public view  returns (string memory , uint, address payable, address payable, string memory) {\n        return (\n            artworks[_id].name,\n            artworks[_id].price,\n            artworks[_id].artist,\n            artworks[_id].owner,\n            artworks[_id].waterMarkedHash\n        );\n    }\n}\n",
  "sourcePath": "/mnt/c/Users/jmzqu/Documents/artbox_without_nodeModules/src/contracts/ArtBox.sol",
  "compiler": {
    "name": "solc",
    "version": "0.5.16+commit.9c3226ce.Emscripten.clang"
  },
  "schemaVersion": "3.0.23",
  "updatedAt": "2020-03-08T17:39:47.689Z",
  "devdoc": {
    "methods": {}
  },
  "userdoc": {
    "methods": {}
  }
}