{
  "contractName": "ArtBox",
  "abi": [
    {
      "constant": true,
      "inputs": [
        {
          "name": "",
          "type": "uint256"
        }
      ],
      "name": "artworks",
      "outputs": [
        {
          "name": "id",
          "type": "uint256"
        },
        {
          "name": "name",
          "type": "string"
        },
        {
          "name": "price",
          "type": "uint256"
        },
        {
          "name": "artist",
          "type": "address"
        },
        {
          "name": "owner",
          "type": "address"
        },
        {
          "name": "ipfsHash",
          "type": "string"
        },
        {
          "name": "purchased",
          "type": "bool"
        }
      ],
      "payable": false,
      "stateMutability": "view",
      "type": "function"
    },
    {
      "constant": true,
      "inputs": [
        {
          "name": "",
          "type": "uint256"
        }
      ],
      "name": "artworkID",
      "outputs": [
        {
          "name": "",
          "type": "uint256"
        }
      ],
      "payable": false,
      "stateMutability": "view",
      "type": "function"
    },
    {
      "constant": true,
      "inputs": [],
      "name": "contractName",
      "outputs": [
        {
          "name": "",
          "type": "string"
        }
      ],
      "payable": false,
      "stateMutability": "view",
      "type": "function"
    },
    {
      "constant": true,
      "inputs": [],
      "name": "artworkCount",
      "outputs": [
        {
          "name": "",
          "type": "uint256"
        }
      ],
      "payable": false,
      "stateMutability": "view",
      "type": "function"
    },
    {
      "inputs": [],
      "payable": false,
      "stateMutability": "nonpayable",
      "type": "constructor"
    },
    {
      "anonymous": false,
      "inputs": [
        {
          "indexed": false,
          "name": "id",
          "type": "uint256"
        },
        {
          "indexed": false,
          "name": "name",
          "type": "string"
        },
        {
          "indexed": false,
          "name": "price",
          "type": "uint256"
        },
        {
          "indexed": false,
          "name": "artist",
          "type": "address"
        },
        {
          "indexed": false,
          "name": "owner",
          "type": "address"
        },
        {
          "indexed": false,
          "name": "ipfsHash",
          "type": "string"
        },
        {
          "indexed": false,
          "name": "purchased",
          "type": "bool"
        }
      ],
      "name": "ArtworkEvent",
      "type": "event"
    },
    {
      "constant": false,
      "inputs": [
        {
          "name": "_name",
          "type": "string"
        },
        {
          "name": "_price",
          "type": "uint256"
        },
        {
          "name": "_ipfsHash",
          "type": "string"
        }
      ],
      "name": "createArtwork",
      "outputs": [],
      "payable": false,
      "stateMutability": "nonpayable",
      "type": "function"
    },
    {
      "constant": false,
      "inputs": [
        {
          "name": "_id",
          "type": "uint256"
        }
      ],
      "name": "buyArtwork",
      "outputs": [],
      "payable": true,
      "stateMutability": "payable",
      "type": "function"
    },
    {
      "constant": true,
      "inputs": [],
      "name": "getArtworks",
      "outputs": [
        {
          "name": "",
          "type": "uint256[]"
        }
      ],
      "payable": false,
      "stateMutability": "view",
      "type": "function"
    },
    {
      "constant": true,
      "inputs": [
        {
          "name": "_id",
          "type": "uint256"
        }
      ],
      "name": "getArtwork",
      "outputs": [
        {
          "name": "",
          "type": "uint256"
        },
        {
          "name": "",
          "type": "string"
        },
        {
          "name": "",
          "type": "uint256"
        },
        {
          "name": "",
          "type": "address"
        },
        {
          "name": "",
          "type": "address"
        },
        {
          "name": "",
          "type": "string"
        },
        {
          "name": "",
          "type": "bool"
        }
      ],
      "payable": false,
      "stateMutability": "view",
      "type": "function"
    }
  ],
  "bytecode": "0x608060405260006001553480156200001657600080fd5b506040518060400160405280600681526020017f417274426f78000000000000000000000000000000000000000000000000000081525060009080519060200190620000649291906200006b565b506200011a565b828054600181600116156101000203166002900490600052602060002090601f016020900481019282601f10620000ae57805160ff1916838001178555620000df565b82800160010185558215620000df579182015b82811115620000de578251825591602001919060010190620000c1565b5b509050620000ee9190620000f2565b5090565b6200011791905b8082111562000113576000816000905550600101620000f9565b5090565b90565b611921806200012a6000396000f3fe60806040526004361061007a5760003560e01c806375d0c0dc1161004e57806375d0c0dc14610478578063a087644514610508578063d761d36414610533578063e44c3c4b1461069c5761007a565b8062a715271461007f578063167ddf6e146100eb5780634b6026731461028a5780635932641a14610429575b600080fd5b34801561008b57600080fd5b506100946106ca565b6040518080602001828103825283818151815260200191508051906020019060200280838360005b838110156100d75780820151818401526020810190506100bc565b505050509050019250505060405180910390f35b3480156100f757600080fd5b506101246004803603602081101561010e57600080fd5b8101908080359060200190929190505050610722565b60405180888152602001806020018781526020018673ffffffffffffffffffffffffffffffffffffffff1673ffffffffffffffffffffffffffffffffffffffff1681526020018573ffffffffffffffffffffffffffffffffffffffff1673ffffffffffffffffffffffffffffffffffffffff1681526020018060200184151515158152602001838103835289818151815260200191508051906020019080838360005b838110156101e25780820151818401526020810190506101c7565b50505050905090810190601f16801561020f5780820380516001836020036101000a031916815260200191505b50838103825285818151815260200191508051906020019080838360005b8381101561024857808201518184015260208101905061022d565b50505050905090810190601f1680156102755780820380516001836020036101000a031916815260200191505b50995050505050505050505060405180910390f35b34801561029657600080fd5b506102c3600480360360208110156102ad57600080fd5b810190808035906020019092919050505061096c565b60405180888152602001806020018781526020018673ffffffffffffffffffffffffffffffffffffffff1673ffffffffffffffffffffffffffffffffffffffff1681526020018573ffffffffffffffffffffffffffffffffffffffff1673ffffffffffffffffffffffffffffffffffffffff1681526020018060200184151515158152602001838103835289818151815260200191508051906020019080838360005b83811015610381578082015181840152602081019050610366565b50505050905090810190601f1680156103ae5780820380516001836020036101000a031916815260200191505b50838103825285818151815260200191508051906020019080838360005b838110156103e75780820151818401526020810190506103cc565b50505050905090810190601f1680156104145780820380516001836020036101000a031916815260200191505b50995050505050505050505060405180910390f35b34801561043557600080fd5b506104626004803603602081101561044c57600080fd5b8101908080359060200190929190505050610b2b565b6040518082815260200191505060405180910390f35b34801561048457600080fd5b5061048d610b4c565b6040518080602001828103825283818151815260200191508051906020019080838360005b838110156104cd5780820151818401526020810190506104b2565b50505050905090810190601f1680156104fa5780820380516001836020036101000a031916815260200191505b509250505060405180910390f35b34801561051457600080fd5b5061051d610bea565b6040518082815260200191505060405180910390f35b34801561053f57600080fd5b5061069a6004803603606081101561055657600080fd5b810190808035906020019064010000000081111561057357600080fd5b82018360208201111561058557600080fd5b803590602001918460018302840111640100000000831117156105a757600080fd5b91908080601f016020809104026020016040519081016040528093929190818152602001838380828437600081840152601f19601f820116905080830192505050505050509192919290803590602001909291908035906020019064010000000081111561061457600080fd5b82018360208201111561062657600080fd5b8035906020019184600183028401116401000000008311171561064857600080fd5b91908080601f016020809104026020016040519081016040528093929190818152602001838380828437600081840152601f19601f820116905080830192505050505050509192919290505050610bf0565b005b6106c8600480360360208110156106b257600080fd5b810190808035906020019092919050505061102d565b005b6060600380548060200260200160405190810160405280929190818152602001828054801561071857602002820191906000526020600020905b815481526020019060010190808311610704575b5050505050905090565b600060606000806000606060006002600089815260200190815260200160002060000154600260008a8152602001908152602001600020600101600260008b815260200190815260200160002060020154600260008c815260200190815260200160002060030160009054906101000a900473ffffffffffffffffffffffffffffffffffffffff16600260008d815260200190815260200160002060040160009054906101000a900473ffffffffffffffffffffffffffffffffffffffff16600260008e8152602001908152602001600020600501600260008f815260200190815260200160002060060160009054906101000a900460ff16858054600181600116156101000203166002900480601f0160208091040260200160405190810160405280929190818152602001828054600181600116156101000203166002900480156108b05780601f10610885576101008083540402835291602001916108b0565b820191906000526020600020905b81548152906001019060200180831161089357829003601f168201915b50505050509550818054600181600116156101000203166002900480601f01602080910402602001604051908101604052809291908181526020018280546001816001161561010002031660029004801561094c5780601f106109215761010080835404028352916020019161094c565b820191906000526020600020905b81548152906001019060200180831161092f57829003601f168201915b505050505091509650965096509650965096509650919395979092949650565b6002602052806000526040600020600091509050806000015490806001018054600181600116156101000203166002900480601f016020809104026020016040519081016040528092919081815260200182805460018160011615610100020316600290048015610a1e5780601f106109f357610100808354040283529160200191610a1e565b820191906000526020600020905b815481529060010190602001808311610a0157829003601f168201915b5050505050908060020154908060030160009054906101000a900473ffffffffffffffffffffffffffffffffffffffff16908060040160009054906101000a900473ffffffffffffffffffffffffffffffffffffffff1690806005018054600181600116156101000203166002900480601f016020809104026020016040519081016040528092919081815260200182805460018160011615610100020316600290048015610b0e5780601f10610ae357610100808354040283529160200191610b0e565b820191906000526020600020905b815481529060010190602001808311610af157829003601f168201915b5050505050908060060160009054906101000a900460ff16905087565b60038181548110610b3857fe5b906000526020600020016000915090505481565b60008054600181600116156101000203166002900480601f016020809104026020016040519081016040528092919081815260200182805460018160011615610100020316600290048015610be25780601f10610bb757610100808354040283529160200191610be2565b820191906000526020600020905b815481529060010190602001808311610bc557829003601f168201915b505050505081565b60015481565b6000835111610c67576040517f08c379a00000000000000000000000000000000000000000000000000000000081526004018080602001828103825260118152602001807f4e616d65206973206e6f742076616c696400000000000000000000000000000081525060200191505060405180910390fd5b60008211610cdd576040517f08c379a00000000000000000000000000000000000000000000000000000000081526004018080602001828103825260128152602001807f5072696365206973206e6f742076616c6964000000000000000000000000000081525060200191505060405180910390fd5b6001600081548092919060010191905055506040518060e0016040528060015481526020018481526020018381526020013373ffffffffffffffffffffffffffffffffffffffff1681526020013373ffffffffffffffffffffffffffffffffffffffff16815260200182815260200160001515815250600260006001548152602001908152602001600020600082015181600001556020820151816001019080519060200190610d8e9291906117e5565b506040820151816002015560608201518160030160006101000a81548173ffffffffffffffffffffffffffffffffffffffff021916908373ffffffffffffffffffffffffffffffffffffffff16021790555060808201518160040160006101000a81548173ffffffffffffffffffffffffffffffffffffffff021916908373ffffffffffffffffffffffffffffffffffffffff16021790555060a0820151816005019080519060200190610e439291906117e5565b5060c08201518160060160006101000a81548160ff021916908315150217905550905050600160036001549080600181540180825580915050906001820390600052602060002001600090919290919091505550507ff54f2a3cd89108552143250ecfccd045573a5e68f7472053bc193785259e6cb86001548484333386600060405180888152602001806020018781526020018673ffffffffffffffffffffffffffffffffffffffff1673ffffffffffffffffffffffffffffffffffffffff1681526020018573ffffffffffffffffffffffffffffffffffffffff1673ffffffffffffffffffffffffffffffffffffffff1681526020018060200184151515158152602001838103835289818151815260200191508051906020019080838360005b83811015610f81578082015181840152602081019050610f66565b50505050905090810190601f168015610fae5780820380516001836020036101000a031916815260200191505b50838103825285818151815260200191508051906020019080838360005b83811015610fe7578082015181840152602081019050610fcc565b50505050905090810190601f1680156110145780820380516001836020036101000a031916815260200191505b50995050505050505050505060405180910390a1505050565b611035611865565b600260008381526020019081526020016000206040518060e001604052908160008201548152602001600182018054600181600116156101000203166002900480601f0160208091040260200160405190810160405280929190818152602001828054600181600116156101000203166002900480156110f65780601f106110cb576101008083540402835291602001916110f6565b820191906000526020600020905b8154815290600101906020018083116110d957829003601f168201915b50505050508152602001600282015481526020016003820160009054906101000a900473ffffffffffffffffffffffffffffffffffffffff1673ffffffffffffffffffffffffffffffffffffffff1673ffffffffffffffffffffffffffffffffffffffff1681526020016004820160009054906101000a900473ffffffffffffffffffffffffffffffffffffffff1673ffffffffffffffffffffffffffffffffffffffff1673ffffffffffffffffffffffffffffffffffffffff168152602001600582018054600181600116156101000203166002900480601f01602080910402602001604051908101604052809291908181526020018280546001816001161561010002031660029004801561124e5780601f106112235761010080835404028352916020019161124e565b820191906000526020600020905b81548152906001019060200180831161123157829003601f168201915b505050505081526020016006820160009054906101000a900460ff1615151515815250509050600081608001519050600082600001511180156112975750600154826000015111155b611309576040517f08c379a000000000000000000000000000000000000000000000000000000000815260040180806020018281038252600f8152602001807f4944206973206e6f742076616c6964000000000000000000000000000000000081525060200191505060405180910390fd5b8160400151341015611383576040517f08c379a000000000000000000000000000000000000000000000000000000000815260040180806020018281038252600c8152602001807f56616c7565206973206e6f74000000000000000000000000000000000000000081525060200191505060405180910390fd5b8160c00151156113fb576040517f08c379a00000000000000000000000000000000000000000000000000000000081526004018080602001828103825260158152602001807f617274776f726b206e6f7420617661696c61626c65000000000000000000000081525060200191505060405180910390fd5b3373ffffffffffffffffffffffffffffffffffffffff168173ffffffffffffffffffffffffffffffffffffffff16141561149d576040517f08c379a00000000000000000000000000000000000000000000000000000000081526004018080602001828103825260178152602001807f73656c6c65722063616e206e6f7420626520627579657200000000000000000081525060200191505060405180910390fd5b33826080019073ffffffffffffffffffffffffffffffffffffffff16908173ffffffffffffffffffffffffffffffffffffffff168152505060018260c001901515908115158152505081600260008581526020019081526020016000206000820151816000015560208201518160010190805190602001906115209291906117e5565b506040820151816002015560608201518160030160006101000a81548173ffffffffffffffffffffffffffffffffffffffff021916908373ffffffffffffffffffffffffffffffffffffffff16021790555060808201518160040160006101000a81548173ffffffffffffffffffffffffffffffffffffffff021916908373ffffffffffffffffffffffffffffffffffffffff16021790555060a08201518160050190805190602001906115d59291906117e5565b5060c08201518160060160006101000a81548160ff0219169083151502179055509050508073ffffffffffffffffffffffffffffffffffffffff166108fc349081150290604051600060405180830381858888f1935050505015801561163f573d6000803e3d6000fd5b507ff54f2a3cd89108552143250ecfccd045573a5e68f7472053bc193785259e6cb8600154836020015184604001518560600151338760a00151600160405180888152602001806020018781526020018673ffffffffffffffffffffffffffffffffffffffff1673ffffffffffffffffffffffffffffffffffffffff1681526020018573ffffffffffffffffffffffffffffffffffffffff1673ffffffffffffffffffffffffffffffffffffffff1681526020018060200184151515158152602001838103835289818151815260200191508051906020019080838360005b8381101561173957808201518184015260208101905061171e565b50505050905090810190601f1680156117665780820380516001836020036101000a031916815260200191505b50838103825285818151815260200191508051906020019080838360005b8381101561179f578082015181840152602081019050611784565b50505050905090810190601f1680156117cc5780820380516001836020036101000a031916815260200191505b50995050505050505050505060405180910390a1505050565b828054600181600116156101000203166002900490600052602060002090601f016020900481019282601f1061182657805160ff1916838001178555611854565b82800160010185558215611854579182015b82811115611853578251825591602001919060010190611838565b5b50905061186191906118d0565b5090565b6040518060e00160405280600081526020016060815260200160008152602001600073ffffffffffffffffffffffffffffffffffffffff168152602001600073ffffffffffffffffffffffffffffffffffffffff168152602001606081526020016000151581525090565b6118f291905b808211156118ee5760008160009055506001016118d6565b5090565b9056fea165627a7a7230582002111a8c0d37b40bbd44f1b24275dfa3f98a4a2a21cead4548de5fbcb0887cf80029",
  "source": "pragma solidity ^0.5.0;\r\n\r\ncontract ArtBox {\r\n    string public contractName;\r\n    uint public artworkCount = 0;\r\n    mapping(uint => Artwork) public artworks;\r\n    uint[] public artworkID;\r\n\r\n    //Not yet implemented, to \"remove\" an item from blockchain\r\n    enum ArtWorkStatus {\r\n        active,\r\n        sold,\r\n        removed\r\n    }\r\n\r\n    //Structs\r\n    struct Artwork {\r\n        uint id;\r\n        string name;\r\n        uint price;\r\n        address payable artist;\r\n        address payable owner;\r\n        string ipfsHash;\r\n        bool purchased;\r\n    }\r\n\r\n     //Emitting Events for testing\r\n    event ArtworkEvent(\r\n        uint id,\r\n        string name,\r\n        uint price,\r\n        address payable artist,\r\n        address payable owner,\r\n        string ipfsHash,\r\n        bool purchased\r\n    );\r\n\r\n\r\n    //Constructors\r\n    constructor() public{\r\n        contractName = \"ArtBox\";\r\n    }\r\n\r\n    //Functions\r\n    function createArtwork(string memory _name, uint _price, string memory _ipfsHash) public {\r\n        //Require valid parameters\r\n        require(bytes(_name).length > 0, \"Name is not valid\");\r\n        require(_price > 0, \"Price is not valid\");\r\n        artworkCount++;\r\n\r\n        // Create artwork\r\n        artworks[artworkCount] = Artwork(artworkCount, _name, _price, msg.sender, msg.sender, _ipfsHash, false);\r\n        artworkID.push(artworkCount)-1;\r\n\r\n        //Event for test\r\n        emit ArtworkEvent(artworkCount, _name, _price, msg.sender, msg.sender,  _ipfsHash,false);\r\n    }\r\n\r\n    function buyArtwork(uint _id) public payable {\r\n\r\n        Artwork memory _artwork = artworks[_id];\r\n        address payable _seller = _artwork.owner;\r\n        //validation\r\n        require(_artwork.id > 0 && _artwork.id <= artworkCount, \"ID is not valid\");\r\n        require(msg.value >= _artwork.price, \"Value is not\");\r\n        require(!_artwork.purchased, \"artwork not available\");\r\n        require(_seller != msg.sender, \"seller can not be buyer\");\r\n\r\n        //update values\r\n        _artwork.owner = msg.sender;\r\n        _artwork.purchased = true;\r\n        artworks[_id] = _artwork;\r\n        address(_seller).transfer(msg.value);\r\n\r\n        //Event for testing\r\n        emit ArtworkEvent(artworkCount, _artwork.name, _artwork.price, _artwork.artist, msg.sender, _artwork.ipfsHash, true);\r\n\r\n\r\n    }\r\n\r\n    function getArtworks() public view returns(uint[] memory){\r\n        return artworkID;\r\n    }\r\n\r\n    function getArtwork(uint _id) public view  returns (uint, string memory , uint, address payable, address payable, string memory, bool) {\r\n\r\n        return (\r\n            artworks[_id].id,\r\n            artworks[_id].name,\r\n            artworks[_id].price,\r\n            artworks[_id].artist,\r\n            artworks[_id].owner,\r\n            artworks[_id].ipfsHash,\r\n            artworks[_id].purchased\r\n        );\r\n    }\r\n\r\n}\r\n",
  "sourcePath": "C:/Users/jmzqu/OneDrive/Desktop/FYP/Demo/TempDirectory/ArtBox/src/contracts/ArtBox.sol",
  "compiler": {
    "name": "solc",
    "version": "0.5.8+commit.23d335f2.Emscripten.clang"
  },
  "schemaVersion": "3.0.16",
  "updatedAt": "2019-12-15T11:32:25.432Z",
  "devdoc": {
    "methods": {}
  },
  "userdoc": {
    "methods": {}
  }
}